:030000000208D023
:0C08D000787FE4F6D8FD75810A0208A6C6
:0A08DC004C59434F20534F4654007F
:06080000D2937F057E008B
:10080600E4FDFCC3ED9FEE6480F8EC64809850151F
:10081600E4FBFA0BBB00010AEB64734A70F50DBDED
:0508260000010C80DE62
:01082B0022AA
:10085100A907E954F0F590C292120800C293E9C4C5
:0E08610054F0F590C292D293120806C2932270
:10086F00A907E954F0F590D292120800C293E9C497
:0E087F0054F0F590D292D293120806C2932242
:10082C008B088A09890AAB08AA09A90A12088D60E3
:10083C0013050AE50A7002050914F912088DFF1256
:05084C00086F80E222AC
:1008BC007F021208517F281208517F061208517FBF
:0408CC000C020851C1
:1008A600E4F5901208BC7F801208517BFF7A087924
:0608B600DC12082C80F0AA
:10088D00BB010689828A83E0225002E722BBFE0269
:09089D00E32289828A83E493229C
:00000001FF
